{
  "contractName": "NameStorageExample",
  "abi": [
    {
      "constant": true,
      "inputs": [],
      "name": "currentIndex",
      "outputs": [
        {
          "name": "",
          "type": "uint256"
        }
      ],
      "payable": false,
      "stateMutability": "view",
      "type": "function"
    },
    {
      "constant": false,
      "inputs": [],
      "name": "renounceOwnership",
      "outputs": [],
      "payable": false,
      "stateMutability": "nonpayable",
      "type": "function"
    },
    {
      "constant": true,
      "inputs": [
        {
          "name": "",
          "type": "uint256"
        }
      ],
      "name": "indexNames",
      "outputs": [
        {
          "name": "",
          "type": "string"
        }
      ],
      "payable": false,
      "stateMutability": "view",
      "type": "function"
    },
    {
      "constant": true,
      "inputs": [],
      "name": "contractName",
      "outputs": [
        {
          "name": "",
          "type": "string"
        }
      ],
      "payable": false,
      "stateMutability": "view",
      "type": "function"
    },
    {
      "constant": true,
      "inputs": [],
      "name": "owner",
      "outputs": [
        {
          "name": "",
          "type": "address"
        }
      ],
      "payable": false,
      "stateMutability": "view",
      "type": "function"
    },
    {
      "constant": true,
      "inputs": [
        {
          "name": "",
          "type": "address"
        }
      ],
      "name": "addressNames",
      "outputs": [
        {
          "name": "",
          "type": "string"
        }
      ],
      "payable": false,
      "stateMutability": "view",
      "type": "function"
    },
    {
      "constant": false,
      "inputs": [
        {
          "name": "_newOwner",
          "type": "address"
        }
      ],
      "name": "transferOwnership",
      "outputs": [],
      "payable": false,
      "stateMutability": "nonpayable",
      "type": "function"
    },
    {
      "inputs": [],
      "payable": false,
      "stateMutability": "nonpayable",
      "type": "constructor"
    },
    {
      "payable": false,
      "stateMutability": "nonpayable",
      "type": "fallback"
    },
    {
      "anonymous": false,
      "inputs": [
        {
          "indexed": false,
          "name": "previousContractName",
          "type": "string"
        },
        {
          "indexed": false,
          "name": "newContractName",
          "type": "string"
        }
      ],
      "name": "ContractNameChanged",
      "type": "event"
    },
    {
      "anonymous": false,
      "inputs": [
        {
          "indexed": false,
          "name": "changer",
          "type": "address"
        },
        {
          "indexed": false,
          "name": "index",
          "type": "uint256"
        },
        {
          "indexed": false,
          "name": "name",
          "type": "string"
        }
      ],
      "name": "IndexNameAdded",
      "type": "event"
    },
    {
      "anonymous": false,
      "inputs": [
        {
          "indexed": false,
          "name": "changer",
          "type": "address"
        },
        {
          "indexed": false,
          "name": "previousValue",
          "type": "string"
        },
        {
          "indexed": false,
          "name": "newValue",
          "type": "string"
        }
      ],
      "name": "AddressNameChanged",
      "type": "event"
    },
    {
      "anonymous": false,
      "inputs": [
        {
          "indexed": true,
          "name": "previousOwner",
          "type": "address"
        }
      ],
      "name": "OwnershipRenounced",
      "type": "event"
    },
    {
      "anonymous": false,
      "inputs": [
        {
          "indexed": true,
          "name": "previousOwner",
          "type": "address"
        },
        {
          "indexed": true,
          "name": "newOwner",
          "type": "address"
        }
      ],
      "name": "OwnershipTransferred",
      "type": "event"
    },
    {
      "constant": false,
      "inputs": [
        {
          "name": "newContractName",
          "type": "string"
        }
      ],
      "name": "changeContractName",
      "outputs": [],
      "payable": false,
      "stateMutability": "nonpayable",
      "type": "function"
    },
    {
      "constant": false,
      "inputs": [
        {
          "name": "newName",
          "type": "string"
        }
      ],
      "name": "changeAddressName",
      "outputs": [],
      "payable": false,
      "stateMutability": "nonpayable",
      "type": "function"
    },
    {
      "constant": false,
      "inputs": [
        {
          "name": "name",
          "type": "string"
        }
      ],
      "name": "addIndexName",
      "outputs": [],
      "payable": false,
      "stateMutability": "nonpayable",
      "type": "function"
    },
    {
      "constant": true,
      "inputs": [],
      "name": "getAddressName",
      "outputs": [
        {
          "name": "",
          "type": "string"
        }
      ],
      "payable": false,
      "stateMutability": "view",
      "type": "function"
    }
  ],
  "bytecode": "0x608060405234801561001057600080fd5b50336000806101000a81548173ffffffffffffffffffffffffffffffffffffffff021916908373ffffffffffffffffffffffffffffffffffffffff1602179055506040805190810160405280601281526020017f4e616d6553746f726167654578616d706c6500000000000000000000000000008152506001908051906020019061009c9291906100aa565b50600060038190555061014f565b828054600181600116156101000203166002900490600052602060002090601f016020900481019282601f106100eb57805160ff1916838001178555610119565b82800160010185558215610119579182015b828111156101185782518255916020019190600101906100fd565b5b509050610126919061012a565b5090565b61014c91905b80821115610148576000816000905550600101610130565b5090565b90565b611049806200015f6000396000f3006080604052600436106100af576000357c0100000000000000000000000000000000000000000000000000000000900463ffffffff16806326987b60146100c1578063715018a6146100ec57806374a70f811461010357806375d0c0dc146101a95780638da5cb5b1461023957806391d7ea1f14610290578063921610b314610320578063ad3cd88314610389578063b0501869146103f2578063b74cb416146104ae578063f2fde38b14610517575b3480156100bb57600080fd5b50600080fd5b3480156100cd57600080fd5b506100d661055a565b6040518082815260200191505060405180910390f35b3480156100f857600080fd5b50610101610560565b005b34801561010f57600080fd5b5061012e60048036038101908080359060200190929190505050610662565b6040518080602001828103825283818151815260200191508051906020019080838360005b8381101561016e578082015181840152602081019050610153565b50505050905090810190601f16801561019b5780820380516001836020036101000a031916815260200191505b509250505060405180910390f35b3480156101b557600080fd5b506101be610712565b6040518080602001828103825283818151815260200191508051906020019080838360005b838110156101fe5780820151818401526020810190506101e3565b50505050905090810190601f16801561022b5780820380516001836020036101000a031916815260200191505b509250505060405180910390f35b34801561024557600080fd5b5061024e6107b0565b604051808273ffffffffffffffffffffffffffffffffffffffff1673ffffffffffffffffffffffffffffffffffffffff16815260200191505060405180910390f35b34801561029c57600080fd5b506102a56107d5565b6040518080602001828103825283818151815260200191508051906020019080838360005b838110156102e55780820151818401526020810190506102ca565b50505050905090810190601f1680156103125780820380516001836020036101000a031916815260200191505b509250505060405180910390f35b34801561032c57600080fd5b50610387600480360381019080803590602001908201803590602001908080601f01602080910402602001604051908101604052809392919081815260200183838082843782019150505050505091929192905050506108b4565b005b34801561039557600080fd5b506103f0600480360381019080803590602001908201803590602001908080601f01602080910402602001604051908101604052809392919081815260200183838082843782019150505050505091929192905050506109c4565b005b3480156103fe57600080fd5b50610433600480360381019080803573ffffffffffffffffffffffffffffffffffffffff169060200190929190505050610b60565b6040518080602001828103825283818151815260200191508051906020019080838360005b83811015610473578082015181840152602081019050610458565b50505050905090810190601f1680156104a05780820380516001836020036101000a031916815260200191505b509250505060405180910390f35b3480156104ba57600080fd5b50610515600480360381019080803590602001908201803590602001908080601f0160208091040260200160405190810160405280939291908181526020018383808284378201915050505050509192919290505050610c10565b005b34801561052357600080fd5b50610558600480360381019080803573ffffffffffffffffffffffffffffffffffffffff169060200190929190505050610dff565b005b60035481565b6000809054906101000a900473ffffffffffffffffffffffffffffffffffffffff1673ffffffffffffffffffffffffffffffffffffffff163373ffffffffffffffffffffffffffffffffffffffff161415156105bb57600080fd5b6000809054906101000a900473ffffffffffffffffffffffffffffffffffffffff1673ffffffffffffffffffffffffffffffffffffffff167ff8df31144d9c2f0f6b59d69b8b98abd5459d07f2742c4df920b25aae33c6482060405160405180910390a260008060006101000a81548173ffffffffffffffffffffffffffffffffffffffff021916908373ffffffffffffffffffffffffffffffffffffffff160217905550565b60026020528060005260406000206000915090508054600181600116156101000203166002900480601f01602080910402602001604051908101604052809291908181526020018280546001816001161561010002031660029004801561070a5780601f106106df5761010080835404028352916020019161070a565b820191906000526020600020905b8154815290600101906020018083116106ed57829003601f168201915b505050505081565b60018054600181600116156101000203166002900480601f0160208091040260200160405190810160405280929190818152602001828054600181600116156101000203166002900480156107a85780601f1061077d576101008083540402835291602001916107a8565b820191906000526020600020905b81548152906001019060200180831161078b57829003601f168201915b505050505081565b6000809054906101000a900473ffffffffffffffffffffffffffffffffffffffff1681565b6060600460003373ffffffffffffffffffffffffffffffffffffffff1673ffffffffffffffffffffffffffffffffffffffff1681526020019081526020016000208054600181600116156101000203166002900480601f0160208091040260200160405190810160405280929190818152602001828054600181600116156101000203166002900480156108aa5780601f1061087f576101008083540402835291602001916108aa565b820191906000526020600020905b81548152906001019060200180831161088d57829003601f168201915b5050505050905090565b60006108be610e66565b90507fee1055addbc6f542fbf76f8ce9057549a0cf3f8f2524d78b945296510ab85939338284604051808473ffffffffffffffffffffffffffffffffffffffff1673ffffffffffffffffffffffffffffffffffffffff16815260200183815260200180602001828103825283818151815260200191508051906020019080838360005b8381101561095c578082015181840152602081019050610941565b50505050905090810190601f1680156109895780820380516001836020036101000a031916815260200191505b5094505050505060405180910390a1816002600083815260200190815260200160002090805190602001906109bf929190610f78565b505050565b6000809054906101000a900473ffffffffffffffffffffffffffffffffffffffff1673ffffffffffffffffffffffffffffffffffffffff163373ffffffffffffffffffffffffffffffffffffffff16141515610a1f57600080fd5b7fb5b6de7a8acfd7358ea49cc553c85d31a8a5550026ab5884991d3a346b1b6d74600182604051808060200180602001838103835285818154600181600116156101000203166002900481526020019150805460018160011615610100020316600290048015610ad05780601f10610aa557610100808354040283529160200191610ad0565b820191906000526020600020905b815481529060010190602001808311610ab357829003601f168201915b5050838103825284818151815260200191508051906020019080838360005b83811015610b0a578082015181840152602081019050610aef565b50505050905090810190601f168015610b375780820380516001836020036101000a031916815260200191505b5094505050505060405180910390a18060019080519060200190610b5c929190610f78565b5050565b60046020528060005260406000206000915090508054600181600116156101000203166002900480601f016020809104026020016040519081016040528092919081815260200182805460018160011615610100020316600290048015610c085780601f10610bdd57610100808354040283529160200191610c08565b820191906000526020600020905b815481529060010190602001808311610beb57829003601f168201915b505050505081565b7f629164cf20d4208099c5e1946522e3eb15c96f44024fef3a1b8d068a65e17a7733600460003373ffffffffffffffffffffffffffffffffffffffff1673ffffffffffffffffffffffffffffffffffffffff16815260200190815260200160002083604051808473ffffffffffffffffffffffffffffffffffffffff1673ffffffffffffffffffffffffffffffffffffffff1681526020018060200180602001838103835285818154600181600116156101000203166002900481526020019150805460018160011615610100020316600290048015610d315780601f10610d0657610100808354040283529160200191610d31565b820191906000526020600020905b815481529060010190602001808311610d1457829003601f168201915b5050838103825284818151815260200191508051906020019080838360005b83811015610d6b578082015181840152602081019050610d50565b50505050905090810190601f168015610d985780820380516001836020036101000a031916815260200191505b509550505050505060405180910390a180600460003373ffffffffffffffffffffffffffffffffffffffff1673ffffffffffffffffffffffffffffffffffffffff1681526020019081526020016000209080519060200190610dfb929190610f78565b5050565b6000809054906101000a900473ffffffffffffffffffffffffffffffffffffffff1673ffffffffffffffffffffffffffffffffffffffff163373ffffffffffffffffffffffffffffffffffffffff16141515610e5a57600080fd5b610e6381610e7e565b50565b60006003600081548092919060010191905055905090565b600073ffffffffffffffffffffffffffffffffffffffff168173ffffffffffffffffffffffffffffffffffffffff1614151515610eba57600080fd5b8073ffffffffffffffffffffffffffffffffffffffff166000809054906101000a900473ffffffffffffffffffffffffffffffffffffffff1673ffffffffffffffffffffffffffffffffffffffff167f8be0079c531659141344cd1fd0a4f28419497f9722a3daafe3b4186f6b6457e060405160405180910390a3806000806101000a81548173ffffffffffffffffffffffffffffffffffffffff021916908373ffffffffffffffffffffffffffffffffffffffff16021790555050565b828054600181600116156101000203166002900490600052602060002090601f016020900481019282601f10610fb957805160ff1916838001178555610fe7565b82800160010185558215610fe7579182015b82811115610fe6578251825591602001919060010190610fcb565b5b509050610ff49190610ff8565b5090565b61101a91905b80821115611016576000816000905550600101610ffe565b5090565b905600a165627a7a723058205a97587bd8410455afe45285e58f7836a4f0f3633858a3f4debe1b68a5c36e890029",
  "source": "pragma solidity ^0.4.24;\n\nimport \"zeppelin-solidity/contracts/ownership/Ownable.sol\";\n\n/// @title Contract Example for a storing names\n/// @author Marius Reimer (reime005) <reime005@gmail.com>\n/// @notice \n/// @dev This is the core contract\ncontract NameStorageExample is Ownable {\n    string public contractName;\n\n    mapping (uint => string) public indexNames;\n    uint public currentIndex;\n\n    mapping (address => string) public addressNames;\n\n    event ContractNameChanged(string previousContractName, string newContractName);\n    event IndexNameAdded(address changer, uint index, string name);\n    event AddressNameChanged(address changer, string previousValue, string newValue);\n\n    constructor() public {\n        contractName = \"NameStorageExample\";\n        currentIndex = 0;\n    }\n\n    /// @notice Fallback method. Sending ether to this contract \n    /// will cause expection, since 'payable' is missing. \n    function() public {\n        revert();\n    }\n    \n    /// @notice Returns index and then increments it\n    /// @return Name Index counter before incrementing\n    function nextIndex() \n        private\n        returns(uint) {\n        return currentIndex++;\n    }\n\n    /// @notice Owner can change the name of the contract\n    /// @param newContractName The new contract name\n    function changeContractName(\n        string newContractName\n    ) public onlyOwner {\n        emit ContractNameChanged(contractName, newContractName);\n        contractName = newContractName;\n    }\n\n    /// @notice Changes the name for the sender's address\n    /// @param newName The new name for the sender's address\n    function changeAddressName(\n        string newName\n    ) public {\n        emit AddressNameChanged(msg.sender, addressNames[msg.sender], newName);\n        addressNames[msg.sender] = newName;\n    }\n\n    /// @notice Adds a name at the current index\n    /// @param name The name to be added\n    function addIndexName(\n        string name\n    ) public {\n        uint index = nextIndex();\n        emit IndexNameAdded(msg.sender, index, name);\n        indexNames[index] = name;\n    }\n\n    /// @notice Retrieves the name for the sender's address\n    /// @dev Note that addressNames is public, so there is already a getter\n    /// @return name string at sender's address \n    function getAddressName() \n        external view\n        returns(string) {\n        return addressNames[msg.sender];\n    }\n}",
  "sourcePath": "/Users/marius/Development/gatsby-dapp-example/truffle/contracts/NameStorageExample.sol",
  "compiler": {
    "name": "solc",
    "version": "0.4.24+commit.e67f0147.Emscripten.clang"
  },
  "schemaVersion": "2.0.1",
  "updatedAt": "2018-08-12T10:33:55.707Z"
}