{
  "contractName": "NameStorageExample",
  "abi": [
    {
      "constant": true,
      "inputs": [],
      "name": "name",
      "outputs": [
        {
          "name": "",
          "type": "string"
        }
      ],
      "payable": false,
      "stateMutability": "view",
      "type": "function"
    },
    {
      "constant": false,
      "inputs": [],
      "name": "renounceOwnership",
      "outputs": [],
      "payable": false,
      "stateMutability": "nonpayable",
      "type": "function"
    },
    {
      "constant": true,
      "inputs": [],
      "name": "owner",
      "outputs": [
        {
          "name": "",
          "type": "address"
        }
      ],
      "payable": false,
      "stateMutability": "view",
      "type": "function"
    },
    {
      "constant": true,
      "inputs": [],
      "name": "foo",
      "outputs": [
        {
          "name": "",
          "type": "string"
        }
      ],
      "payable": false,
      "stateMutability": "view",
      "type": "function"
    },
    {
      "constant": true,
      "inputs": [
        {
          "name": "",
          "type": "uint256"
        }
      ],
      "name": "numbers",
      "outputs": [
        {
          "name": "",
          "type": "uint32"
        }
      ],
      "payable": false,
      "stateMutability": "view",
      "type": "function"
    },
    {
      "constant": false,
      "inputs": [
        {
          "name": "_newOwner",
          "type": "address"
        }
      ],
      "name": "transferOwnership",
      "outputs": [],
      "payable": false,
      "stateMutability": "nonpayable",
      "type": "function"
    },
    {
      "inputs": [],
      "payable": false,
      "stateMutability": "nonpayable",
      "type": "constructor"
    },
    {
      "anonymous": false,
      "inputs": [
        {
          "indexed": false,
          "name": "previousName",
          "type": "string"
        },
        {
          "indexed": false,
          "name": "newName",
          "type": "string"
        }
      ],
      "name": "NameChangedEvent",
      "type": "event"
    },
    {
      "anonymous": false,
      "inputs": [
        {
          "indexed": false,
          "name": "changer",
          "type": "address"
        },
        {
          "indexed": false,
          "name": "previousFoo",
          "type": "string"
        },
        {
          "indexed": false,
          "name": "newFoo",
          "type": "string"
        }
      ],
      "name": "FooChangedEvent",
      "type": "event"
    },
    {
      "anonymous": false,
      "inputs": [
        {
          "indexed": true,
          "name": "previousOwner",
          "type": "address"
        }
      ],
      "name": "OwnershipRenounced",
      "type": "event"
    },
    {
      "anonymous": false,
      "inputs": [
        {
          "indexed": true,
          "name": "previousOwner",
          "type": "address"
        },
        {
          "indexed": true,
          "name": "newOwner",
          "type": "address"
        }
      ],
      "name": "OwnershipTransferred",
      "type": "event"
    },
    {
      "constant": false,
      "inputs": [
        {
          "name": "newName",
          "type": "string"
        }
      ],
      "name": "changeName",
      "outputs": [],
      "payable": false,
      "stateMutability": "nonpayable",
      "type": "function"
    },
    {
      "constant": false,
      "inputs": [
        {
          "name": "newFoo",
          "type": "string"
        }
      ],
      "name": "changeFoo",
      "outputs": [],
      "payable": false,
      "stateMutability": "nonpayable",
      "type": "function"
    },
    {
      "constant": true,
      "inputs": [],
      "name": "getFoo",
      "outputs": [
        {
          "name": "",
          "type": "string"
        }
      ],
      "payable": false,
      "stateMutability": "view",
      "type": "function"
    },
    {
      "constant": true,
      "inputs": [],
      "name": "getName",
      "outputs": [
        {
          "name": "",
          "type": "string"
        }
      ],
      "payable": false,
      "stateMutability": "view",
      "type": "function"
    },
    {
      "constant": true,
      "inputs": [],
      "name": "getNumbers",
      "outputs": [
        {
          "name": "",
          "type": "uint32[2]"
        }
      ],
      "payable": false,
      "stateMutability": "view",
      "type": "function"
    }
  ],
  "bytecode": "0x60806040523480156200001157600080fd5b50336000806101000a81548173ffffffffffffffffffffffffffffffffffffffff021916908373ffffffffffffffffffffffffffffffffffffffff1602179055506040805190810160405280601281526020017f4e616d6553746f726167654578616d706c650000000000000000000000000000815250600190805190602001906200009f92919062000124565b506040805190810160405280601860ff168152602001602a60ff168152506003906002620000cf929190620001ab565b506040805190810160405280600381526020017f666f6f0000000000000000000000000000000000000000000000000000000000815250600290805190602001906200011d92919062000124565b50620002b0565b828054600181600116156101000203166002900490600052602060002090601f016020900481019282601f106200016757805160ff191683800117855562000198565b8280016001018555821562000198579182015b82811115620001975782518255916020019190600101906200017a565b5b509050620001a7919062000252565b5090565b8260026007016008900481019282156200023f5791602002820160005b838211156200020b57835183826101000a81548163ffffffff021916908360ff1602179055509260200192600401602081600301049283019260010302620001c8565b80156200023d5782816101000a81549063ffffffff02191690556004016020816003010492830192600103026200020b565b505b5090506200024e91906200027a565b5090565b6200027791905b808211156200027357600081600090555060010162000259565b5090565b90565b620002ad91905b80821115620002a957600081816101000a81549063ffffffff02191690555060010162000281565b5090565b90565b610ec980620002c06000396000f3006080604052600436106100af576000357c0100000000000000000000000000000000000000000000000000000000900463ffffffff16806306fdde03146100b457806317d7de7c14610144578063243dc8da146101d45780635353a2d814610264578063715018a6146102cd57806387f5d151146102e457806389f915f61461034d5780638da5cb5b146103a0578063c2985578146103f7578063d39fa23314610487578063f2fde38b146104d4575b600080fd5b3480156100c057600080fd5b506100c9610517565b6040518080602001828103825283818151815260200191508051906020019080838360005b838110156101095780820151818401526020810190506100ee565b50505050905090810190601f1680156101365780820380516001836020036101000a031916815260200191505b509250505060405180910390f35b34801561015057600080fd5b506101596105b5565b6040518080602001828103825283818151815260200191508051906020019080838360005b8381101561019957808201518184015260208101905061017e565b50505050905090810190601f1680156101c65780820380516001836020036101000a031916815260200191505b509250505060405180910390f35b3480156101e057600080fd5b506101e9610657565b6040518080602001828103825283818151815260200191508051906020019080838360005b8381101561022957808201518184015260208101905061020e565b50505050905090810190601f1680156102565780820380516001836020036101000a031916815260200191505b509250505060405180910390f35b34801561027057600080fd5b506102cb600480360381019080803590602001908201803590602001908080601f01602080910402602001604051908101604052809392919081815260200183838082843782019150505050505091929192905050506106f9565b005b3480156102d957600080fd5b506102e2610895565b005b3480156102f057600080fd5b5061034b600480360381019080803590602001908201803590602001908080601f0160208091040260200160405190810160405280939291908181526020018383808284378201915050505050509192919290505050610997565b005b34801561035957600080fd5b50610362610b0c565b6040518082600260200280838360005b8381101561038d578082015181840152602081019050610372565b5050505090500191505060405180910390f35b3480156103ac57600080fd5b506103b5610b83565b604051808273ffffffffffffffffffffffffffffffffffffffff1673ffffffffffffffffffffffffffffffffffffffff16815260200191505060405180910390f35b34801561040357600080fd5b5061040c610ba8565b6040518080602001828103825283818151815260200191508051906020019080838360005b8381101561044c578082015181840152602081019050610431565b50505050905090810190601f1680156104795780820380516001836020036101000a031916815260200191505b509250505060405180910390f35b34801561049357600080fd5b506104b260048036038101908080359060200190929190505050610c46565b604051808263ffffffff1663ffffffff16815260200191505060405180910390f35b3480156104e057600080fd5b50610515600480360381019080803573ffffffffffffffffffffffffffffffffffffffff169060200190929190505050610c75565b005b60018054600181600116156101000203166002900480601f0160208091040260200160405190810160405280929190818152602001828054600181600116156101000203166002900480156105ad5780601f10610582576101008083540402835291602001916105ad565b820191906000526020600020905b81548152906001019060200180831161059057829003601f168201915b505050505081565b606060018054600181600116156101000203166002900480601f01602080910402602001604051908101604052809291908181526020018280546001816001161561010002031660029004801561064d5780601f106106225761010080835404028352916020019161064d565b820191906000526020600020905b81548152906001019060200180831161063057829003601f168201915b5050505050905090565b606060028054600181600116156101000203166002900480601f0160208091040260200160405190810160405280929190818152602001828054600181600116156101000203166002900480156106ef5780601f106106c4576101008083540402835291602001916106ef565b820191906000526020600020905b8154815290600101906020018083116106d257829003601f168201915b5050505050905090565b6000809054906101000a900473ffffffffffffffffffffffffffffffffffffffff1673ffffffffffffffffffffffffffffffffffffffff163373ffffffffffffffffffffffffffffffffffffffff1614151561075457600080fd5b7f58c68abb7f49445e486a2d60f1de6006a2c5822a6a6161956b47ba0cb5e060d96001826040518080602001806020018381038352858181546001816001161561010002031660029004815260200191508054600181600116156101000203166002900480156108055780601f106107da57610100808354040283529160200191610805565b820191906000526020600020905b8154815290600101906020018083116107e857829003601f168201915b5050838103825284818151815260200191508051906020019080838360005b8381101561083f578082015181840152602081019050610824565b50505050905090810190601f16801561086c5780820380516001836020036101000a031916815260200191505b5094505050505060405180910390a18060019080519060200190610891929190610dd6565b5050565b6000809054906101000a900473ffffffffffffffffffffffffffffffffffffffff1673ffffffffffffffffffffffffffffffffffffffff163373ffffffffffffffffffffffffffffffffffffffff161415156108f057600080fd5b6000809054906101000a900473ffffffffffffffffffffffffffffffffffffffff1673ffffffffffffffffffffffffffffffffffffffff167ff8df31144d9c2f0f6b59d69b8b98abd5459d07f2742c4df920b25aae33c6482060405160405180910390a260008060006101000a81548173ffffffffffffffffffffffffffffffffffffffff021916908373ffffffffffffffffffffffffffffffffffffffff160217905550565b7f73a02c5091b5d9045b85c05b5c33bec5bd0e112ecf661d9e6ac4fef21c40208333600283604051808473ffffffffffffffffffffffffffffffffffffffff1673ffffffffffffffffffffffffffffffffffffffff1681526020018060200180602001838103835285818154600181600116156101000203166002900481526020019150805460018160011615610100020316600290048015610a7b5780601f10610a5057610100808354040283529160200191610a7b565b820191906000526020600020905b815481529060010190602001808311610a5e57829003601f168201915b5050838103825284818151815260200191508051906020019080838360005b83811015610ab5578082015181840152602081019050610a9a565b50505050905090810190601f168015610ae25780820380516001836020036101000a031916815260200191505b509550505050505060405180910390a18060029080519060200190610b08929190610dd6565b5050565b610b14610e56565b6003600280602002604051908101604052809291908260028015610b79576020028201916000905b82829054906101000a900463ffffffff1663ffffffff1681526020019060040190602082600301049283019260010382029150808411610b3c5790505b5050505050905090565b6000809054906101000a900473ffffffffffffffffffffffffffffffffffffffff1681565b60028054600181600116156101000203166002900480601f016020809104026020016040519081016040528092919081815260200182805460018160011615610100020316600290048015610c3e5780601f10610c1357610100808354040283529160200191610c3e565b820191906000526020600020905b815481529060010190602001808311610c2157829003601f168201915b505050505081565b600381600281101515610c5557fe5b60089182820401919006600402915054906101000a900463ffffffff1681565b6000809054906101000a900473ffffffffffffffffffffffffffffffffffffffff1673ffffffffffffffffffffffffffffffffffffffff163373ffffffffffffffffffffffffffffffffffffffff16141515610cd057600080fd5b610cd981610cdc565b50565b600073ffffffffffffffffffffffffffffffffffffffff168173ffffffffffffffffffffffffffffffffffffffff1614151515610d1857600080fd5b8073ffffffffffffffffffffffffffffffffffffffff166000809054906101000a900473ffffffffffffffffffffffffffffffffffffffff1673ffffffffffffffffffffffffffffffffffffffff167f8be0079c531659141344cd1fd0a4f28419497f9722a3daafe3b4186f6b6457e060405160405180910390a3806000806101000a81548173ffffffffffffffffffffffffffffffffffffffff021916908373ffffffffffffffffffffffffffffffffffffffff16021790555050565b828054600181600116156101000203166002900490600052602060002090601f016020900481019282601f10610e1757805160ff1916838001178555610e45565b82800160010185558215610e45579182015b82811115610e44578251825591602001919060010190610e29565b5b509050610e529190610e78565b5090565b6040805190810160405280600290602082028038833980820191505090505090565b610e9a91905b80821115610e96576000816000905550600101610e7e565b5090565b905600a165627a7a72305820b2aaf22de744dfae261f6ed4431549b7068416de99539ade64449221fd0651630029",
  "source": "pragma solidity ^0.4.23;\n\nimport \"zeppelin-solidity/contracts/ownership/Ownable.sol\";\n\ncontract NameStorageExample is Ownable {\n    string public name;\n    string public foo;\n    uint32[2] public numbers;\n\n    event NameChangedEvent(string previousName, string newName);\n    event FooChangedEvent(address changer, string previousFoo, string newFoo);\n\n    constructor() public {\n        name = \"NameStorageExample\";\n        numbers = [24, 42];\n        foo = \"foo\";\n    }\n\n    function changeName(\n        string newName\n    ) public onlyOwner {\n        emit NameChangedEvent(name, newName);\n        name = newName;\n    }\n\n    function changeFoo(\n        string newFoo\n    ) public {\n        emit FooChangedEvent(msg.sender, foo, newFoo);\n        foo = newFoo;\n    }\n\n    function getFoo() external view\n        returns(string) {\n        return foo;\n    }\n\n    function getName() external view\n        returns(string) {\n        return name;\n    }\n\n    function getNumbers() external view\n        returns(uint32[2]) {\n        return numbers;\n    }\n}",
  "sourcePath": "/Users/marius/Development/gatsby-starter-dapp/truffle/contracts/NameStorageExample.sol",
  "compiler": {
    "name": "solc",
    "version": "0.4.24+commit.e67f0147.Emscripten.clang"
  },
  "schemaVersion": "2.0.1",
  "updatedAt": "2018-08-05T21:33:17.576Z"
}