{
  "contractName": "NameStorageExample",
  "abi": [
    {
      "constant": false,
      "inputs": [],
      "name": "renounceOwnership",
      "outputs": [],
      "payable": false,
      "stateMutability": "nonpayable",
      "type": "function"
    },
    {
      "constant": true,
      "inputs": [],
      "name": "contractName",
      "outputs": [
        {
          "name": "",
          "type": "string"
        }
      ],
      "payable": false,
      "stateMutability": "view",
      "type": "function"
    },
    {
      "constant": true,
      "inputs": [],
      "name": "owner",
      "outputs": [
        {
          "name": "",
          "type": "address"
        }
      ],
      "payable": false,
      "stateMutability": "view",
      "type": "function"
    },
    {
      "constant": false,
      "inputs": [
        {
          "name": "_newOwner",
          "type": "address"
        }
      ],
      "name": "transferOwnership",
      "outputs": [],
      "payable": false,
      "stateMutability": "nonpayable",
      "type": "function"
    },
    {
      "inputs": [],
      "payable": false,
      "stateMutability": "nonpayable",
      "type": "constructor"
    },
    {
      "anonymous": false,
      "inputs": [
        {
          "indexed": false,
          "name": "previousContractName",
          "type": "string"
        },
        {
          "indexed": false,
          "name": "newContractName",
          "type": "string"
        }
      ],
      "name": "ContractNameChanged",
      "type": "event"
    },
    {
      "anonymous": false,
      "inputs": [
        {
          "indexed": false,
          "name": "changer",
          "type": "address"
        },
        {
          "indexed": false,
          "name": "index",
          "type": "uint256"
        },
        {
          "indexed": false,
          "name": "name",
          "type": "string"
        }
      ],
      "name": "IndexNameAdded",
      "type": "event"
    },
    {
      "anonymous": false,
      "inputs": [
        {
          "indexed": false,
          "name": "changer",
          "type": "address"
        },
        {
          "indexed": false,
          "name": "previousValue",
          "type": "string"
        },
        {
          "indexed": false,
          "name": "newValue",
          "type": "string"
        }
      ],
      "name": "AddressNameChanged",
      "type": "event"
    },
    {
      "anonymous": false,
      "inputs": [
        {
          "indexed": true,
          "name": "previousOwner",
          "type": "address"
        }
      ],
      "name": "OwnershipRenounced",
      "type": "event"
    },
    {
      "anonymous": false,
      "inputs": [
        {
          "indexed": true,
          "name": "previousOwner",
          "type": "address"
        },
        {
          "indexed": true,
          "name": "newOwner",
          "type": "address"
        }
      ],
      "name": "OwnershipTransferred",
      "type": "event"
    },
    {
      "constant": false,
      "inputs": [
        {
          "name": "newContractName",
          "type": "string"
        }
      ],
      "name": "changeContractName",
      "outputs": [],
      "payable": false,
      "stateMutability": "nonpayable",
      "type": "function"
    },
    {
      "constant": false,
      "inputs": [
        {
          "name": "newName",
          "type": "string"
        }
      ],
      "name": "changeAddressName",
      "outputs": [],
      "payable": false,
      "stateMutability": "nonpayable",
      "type": "function"
    },
    {
      "constant": false,
      "inputs": [
        {
          "name": "name",
          "type": "string"
        }
      ],
      "name": "addIndexName",
      "outputs": [
        {
          "name": "",
          "type": "uint256"
        }
      ],
      "payable": false,
      "stateMutability": "nonpayable",
      "type": "function"
    },
    {
      "constant": true,
      "inputs": [
        {
          "name": "index",
          "type": "uint256"
        }
      ],
      "name": "getIndexName",
      "outputs": [
        {
          "name": "",
          "type": "string"
        }
      ],
      "payable": false,
      "stateMutability": "view",
      "type": "function"
    },
    {
      "constant": true,
      "inputs": [],
      "name": "getAddressName",
      "outputs": [
        {
          "name": "",
          "type": "string"
        }
      ],
      "payable": false,
      "stateMutability": "view",
      "type": "function"
    },
    {
      "constant": true,
      "inputs": [],
      "name": "getContractName",
      "outputs": [
        {
          "name": "",
          "type": "string"
        }
      ],
      "payable": false,
      "stateMutability": "view",
      "type": "function"
    }
  ],
  "bytecode": "0x608060405234801561001057600080fd5b50336000806101000a81548173ffffffffffffffffffffffffffffffffffffffff021916908373ffffffffffffffffffffffffffffffffffffffff1602179055506040805190810160405280601281526020017f4e616d6553746f726167654578616d706c6500000000000000000000000000008152506001908051906020019061009c9291906100a2565b50610147565b828054600181600116156101000203166002900490600052602060002090601f016020900481019282601f106100e357805160ff1916838001178555610111565b82800160010185558215610111579182015b828111156101105782518255916020019190600101906100f5565b5b50905061011e9190610122565b5090565b61014491905b80821115610140576000816000905550600101610128565b5090565b90565b610fe9806101566000396000f3006080604052600436106100a4576000357c0100000000000000000000000000000000000000000000000000000000900463ffffffff168063715018a6146100a957806375d0c0dc146100c05780638da5cb5b1461015057806391d7ea1f146101a7578063921610b3146102375780639d7ca3f8146102b4578063ad3cd8831461035a578063b74cb416146103c3578063f2fde38b1461042c578063f5f5ba721461046f575b600080fd5b3480156100b557600080fd5b506100be6104ff565b005b3480156100cc57600080fd5b506100d5610601565b6040518080602001828103825283818151815260200191508051906020019080838360005b838110156101155780820151818401526020810190506100fa565b50505050905090810190601f1680156101425780820380516001836020036101000a031916815260200191505b509250505060405180910390f35b34801561015c57600080fd5b5061016561069f565b604051808273ffffffffffffffffffffffffffffffffffffffff1673ffffffffffffffffffffffffffffffffffffffff16815260200191505060405180910390f35b3480156101b357600080fd5b506101bc6106c4565b6040518080602001828103825283818151815260200191508051906020019080838360005b838110156101fc5780820151818401526020810190506101e1565b50505050905090810190601f1680156102295780820380516001836020036101000a031916815260200191505b509250505060405180910390f35b34801561024357600080fd5b5061029e600480360381019080803590602001908201803590602001908080601f01602080910402602001604051908101604052809392919081815260200183838082843782019150505050505091929192905050506107a3565b6040518082815260200191505060405180910390f35b3480156102c057600080fd5b506102df600480360381019080803590602001909291905050506108b9565b6040518080602001828103825283818151815260200191508051906020019080838360005b8381101561031f578082015181840152602081019050610304565b50505050905090810190601f16801561034c5780820380516001836020036101000a031916815260200191505b509250505060405180910390f35b34801561036657600080fd5b506103c1600480360381019080803590602001908201803590602001908080601f016020809104026020016040519081016040528093929190818152602001838380828437820191505050505050919291929050505061096e565b005b3480156103cf57600080fd5b5061042a600480360381019080803590602001908201803590602001908080601f0160208091040260200160405190810160405280939291908181526020018383808284378201915050505050509192919290505050610b0a565b005b34801561043857600080fd5b5061046d600480360381019080803573ffffffffffffffffffffffffffffffffffffffff169060200190929190505050610cf9565b005b34801561047b57600080fd5b50610484610d60565b6040518080602001828103825283818151815260200191508051906020019080838360005b838110156104c45780820151818401526020810190506104a9565b50505050905090810190601f1680156104f15780820380516001836020036101000a031916815260200191505b509250505060405180910390f35b6000809054906101000a900473ffffffffffffffffffffffffffffffffffffffff1673ffffffffffffffffffffffffffffffffffffffff163373ffffffffffffffffffffffffffffffffffffffff1614151561055a57600080fd5b6000809054906101000a900473ffffffffffffffffffffffffffffffffffffffff1673ffffffffffffffffffffffffffffffffffffffff167ff8df31144d9c2f0f6b59d69b8b98abd5459d07f2742c4df920b25aae33c6482060405160405180910390a260008060006101000a81548173ffffffffffffffffffffffffffffffffffffffff021916908373ffffffffffffffffffffffffffffffffffffffff160217905550565b60018054600181600116156101000203166002900480601f0160208091040260200160405190810160405280929190818152602001828054600181600116156101000203166002900480156106975780601f1061066c57610100808354040283529160200191610697565b820191906000526020600020905b81548152906001019060200180831161067a57829003601f168201915b505050505081565b6000809054906101000a900473ffffffffffffffffffffffffffffffffffffffff1681565b6060600460003373ffffffffffffffffffffffffffffffffffffffff1673ffffffffffffffffffffffffffffffffffffffff1681526020019081526020016000208054600181600116156101000203166002900480601f0160208091040260200160405190810160405280929190818152602001828054600181600116156101000203166002900480156107995780601f1061076e57610100808354040283529160200191610799565b820191906000526020600020905b81548152906001019060200180831161077c57829003601f168201915b5050505050905090565b6000806107ae610e02565b90507fee1055addbc6f542fbf76f8ce9057549a0cf3f8f2524d78b945296510ab85939338285604051808473ffffffffffffffffffffffffffffffffffffffff1673ffffffffffffffffffffffffffffffffffffffff16815260200183815260200180602001828103825283818151815260200191508051906020019080838360005b8381101561084c578082015181840152602081019050610831565b50505050905090810190601f1680156108795780820380516001836020036101000a031916815260200191505b5094505050505060405180910390a1826002600083815260200190815260200160002090805190602001906108af929190610f18565b5080915050919050565b6060600260008381526020019081526020016000208054600181600116156101000203166002900480601f0160208091040260200160405190810160405280929190818152602001828054600181600116156101000203166002900480156109625780601f1061093757610100808354040283529160200191610962565b820191906000526020600020905b81548152906001019060200180831161094557829003601f168201915b50505050509050919050565b6000809054906101000a900473ffffffffffffffffffffffffffffffffffffffff1673ffffffffffffffffffffffffffffffffffffffff163373ffffffffffffffffffffffffffffffffffffffff161415156109c957600080fd5b7fb5b6de7a8acfd7358ea49cc553c85d31a8a5550026ab5884991d3a346b1b6d74600182604051808060200180602001838103835285818154600181600116156101000203166002900481526020019150805460018160011615610100020316600290048015610a7a5780601f10610a4f57610100808354040283529160200191610a7a565b820191906000526020600020905b815481529060010190602001808311610a5d57829003601f168201915b5050838103825284818151815260200191508051906020019080838360005b83811015610ab4578082015181840152602081019050610a99565b50505050905090810190601f168015610ae15780820380516001836020036101000a031916815260200191505b5094505050505060405180910390a18060019080519060200190610b06929190610f18565b5050565b7f629164cf20d4208099c5e1946522e3eb15c96f44024fef3a1b8d068a65e17a7733600460003373ffffffffffffffffffffffffffffffffffffffff1673ffffffffffffffffffffffffffffffffffffffff16815260200190815260200160002083604051808473ffffffffffffffffffffffffffffffffffffffff1673ffffffffffffffffffffffffffffffffffffffff1681526020018060200180602001838103835285818154600181600116156101000203166002900481526020019150805460018160011615610100020316600290048015610c2b5780601f10610c0057610100808354040283529160200191610c2b565b820191906000526020600020905b815481529060010190602001808311610c0e57829003601f168201915b5050838103825284818151815260200191508051906020019080838360005b83811015610c65578082015181840152602081019050610c4a565b50505050905090810190601f168015610c925780820380516001836020036101000a031916815260200191505b509550505050505060405180910390a180600460003373ffffffffffffffffffffffffffffffffffffffff1673ffffffffffffffffffffffffffffffffffffffff1681526020019081526020016000209080519060200190610cf5929190610f18565b5050565b6000809054906101000a900473ffffffffffffffffffffffffffffffffffffffff1673ffffffffffffffffffffffffffffffffffffffff163373ffffffffffffffffffffffffffffffffffffffff16141515610d5457600080fd5b610d5d81610e1e565b50565b606060018054600181600116156101000203166002900480601f016020809104026020016040519081016040528092919081815260200182805460018160011615610100020316600290048015610df85780601f10610dcd57610100808354040283529160200191610df8565b820191906000526020600020905b815481529060010190602001808311610ddb57829003601f168201915b5050505050905090565b6000600360008154809291906001019190505550600354905090565b600073ffffffffffffffffffffffffffffffffffffffff168173ffffffffffffffffffffffffffffffffffffffff1614151515610e5a57600080fd5b8073ffffffffffffffffffffffffffffffffffffffff166000809054906101000a900473ffffffffffffffffffffffffffffffffffffffff1673ffffffffffffffffffffffffffffffffffffffff167f8be0079c531659141344cd1fd0a4f28419497f9722a3daafe3b4186f6b6457e060405160405180910390a3806000806101000a81548173ffffffffffffffffffffffffffffffffffffffff021916908373ffffffffffffffffffffffffffffffffffffffff16021790555050565b828054600181600116156101000203166002900490600052602060002090601f016020900481019282601f10610f5957805160ff1916838001178555610f87565b82800160010185558215610f87579182015b82811115610f86578251825591602001919060010190610f6b565b5b509050610f949190610f98565b5090565b610fba91905b80821115610fb6576000816000905550600101610f9e565b5090565b905600a165627a7a723058202cf12a0f68fd48cf11c2dfbd7246018f7948209ca8bc1eb307a02c951ad1488f0029",
  "source": "pragma solidity ^0.4.23;\n\nimport \"zeppelin-solidity/contracts/ownership/Ownable.sol\";\n\ncontract NameStorageExample is Ownable {\n    string public contractName;\n\n    mapping (uint => string) indexNames;\n    uint internal currentIndex;\n\n    mapping (address => string) addressNames;\n\n    event ContractNameChanged(string previousContractName, string newContractName);\n    event IndexNameAdded(address changer, uint index, string name);\n    event AddressNameChanged(address changer, string previousValue, string newValue);\n\n    constructor() public {\n        contractName = \"NameStorageExample\";\n    }\n\n    function nextIndex() \n        internal\n        returns(uint) {\n        currentIndex++;\n        return currentIndex;\n    }\n\n    function changeContractName(\n        string newContractName\n    ) public onlyOwner {\n        emit ContractNameChanged(contractName, newContractName);\n        contractName = newContractName;\n    }\n\n    function changeAddressName(\n        string newName\n    ) public {\n        emit AddressNameChanged(msg.sender, addressNames[msg.sender], newName);\n        addressNames[msg.sender] = newName;\n    }\n\n    function addIndexName(\n        string name\n    ) public\n        returns(uint) {\n        uint index = nextIndex();\n        emit IndexNameAdded(msg.sender, index, name);\n        indexNames[index] = name;\n        return index;\n    }\n\n    function getIndexName(\n        uint index\n    ) external view \n        returns(string) {\n        return indexNames[index];\n    }\n\n    function getAddressName() external view\n        returns(string) {\n        return addressNames[msg.sender];\n    }\n\n    function getContractName() external view\n        returns(string) {\n        return contractName;\n    }\n}",
  "sourcePath": "/Users/marius/Development/gatsby-starter-dapp/truffle/contracts/NameStorageExample.sol",
  "compiler": {
    "name": "solc",
    "version": "0.4.24+commit.e67f0147.Emscripten.clang"
  },
  "schemaVersion": "2.0.1",
  "updatedAt": "2018-08-06T12:10:30.288Z"
}