{
  "contractName": "NameStorageExample",
  "abi": [
    {
      "constant": true,
      "inputs": [],
      "name": "name",
      "outputs": [
        {
          "name": "",
          "type": "string"
        }
      ],
      "payable": false,
      "stateMutability": "view",
      "type": "function"
    },
    {
      "constant": false,
      "inputs": [],
      "name": "renounceOwnership",
      "outputs": [],
      "payable": false,
      "stateMutability": "nonpayable",
      "type": "function"
    },
    {
      "constant": true,
      "inputs": [],
      "name": "owner",
      "outputs": [
        {
          "name": "",
          "type": "address"
        }
      ],
      "payable": false,
      "stateMutability": "view",
      "type": "function"
    },
    {
      "constant": false,
      "inputs": [
        {
          "name": "_newOwner",
          "type": "address"
        }
      ],
      "name": "transferOwnership",
      "outputs": [],
      "payable": false,
      "stateMutability": "nonpayable",
      "type": "function"
    },
    {
      "inputs": [],
      "payable": false,
      "stateMutability": "nonpayable",
      "type": "constructor"
    },
    {
      "anonymous": false,
      "inputs": [
        {
          "indexed": false,
          "name": "previousName",
          "type": "string"
        },
        {
          "indexed": false,
          "name": "newName",
          "type": "string"
        }
      ],
      "name": "NameChangedEvent",
      "type": "event"
    },
    {
      "anonymous": false,
      "inputs": [
        {
          "indexed": true,
          "name": "previousOwner",
          "type": "address"
        }
      ],
      "name": "OwnershipRenounced",
      "type": "event"
    },
    {
      "anonymous": false,
      "inputs": [
        {
          "indexed": true,
          "name": "previousOwner",
          "type": "address"
        },
        {
          "indexed": true,
          "name": "newOwner",
          "type": "address"
        }
      ],
      "name": "OwnershipTransferred",
      "type": "event"
    },
    {
      "constant": false,
      "inputs": [
        {
          "name": "newName",
          "type": "string"
        }
      ],
      "name": "changeName",
      "outputs": [],
      "payable": false,
      "stateMutability": "nonpayable",
      "type": "function"
    },
    {
      "constant": true,
      "inputs": [],
      "name": "getName",
      "outputs": [
        {
          "name": "",
          "type": "string"
        }
      ],
      "payable": false,
      "stateMutability": "view",
      "type": "function"
    }
  ],
  "bytecode": "0x60806040526040805190810160405280600e81526020017f4578616d706c6553746f726167650000000000000000000000000000000000008152506001908051906020019061004f9291906100ee565b5034801561005c57600080fd5b50336000806101000a81548173ffffffffffffffffffffffffffffffffffffffff021916908373ffffffffffffffffffffffffffffffffffffffff1602179055506040805190810160405280600e81526020017f4578616d706c6553746f72616765000000000000000000000000000000000000815250600190805190602001906100e89291906100ee565b50610193565b828054600181600116156101000203166002900490600052602060002090601f016020900481019282601f1061012f57805160ff191683800117855561015d565b8280016001018555821561015d579182015b8281111561015c578251825591602001919060010190610141565b5b50905061016a919061016e565b5090565b61019091905b8082111561018c576000816000905550600101610174565b5090565b90565b610891806101a26000396000f300608060405260043610610078576000357c0100000000000000000000000000000000000000000000000000000000900463ffffffff16806306fdde031461007d57806317d7de7c1461010d5780635353a2d81461019d578063715018a6146102065780638da5cb5b1461021d578063f2fde38b14610274575b600080fd5b34801561008957600080fd5b506100926102b7565b6040518080602001828103825283818151815260200191508051906020019080838360005b838110156100d25780820151818401526020810190506100b7565b50505050905090810190601f1680156100ff5780820380516001836020036101000a031916815260200191505b509250505060405180910390f35b34801561011957600080fd5b50610122610355565b6040518080602001828103825283818151815260200191508051906020019080838360005b83811015610162578082015181840152602081019050610147565b50505050905090810190601f16801561018f5780820380516001836020036101000a031916815260200191505b509250505060405180910390f35b3480156101a957600080fd5b50610204600480360381019080803590602001908201803590602001908080601f01602080910402602001604051908101604052809392919081815260200183838082843782019150505050505091929192905050506103f7565b005b34801561021257600080fd5b5061021b610538565b005b34801561022957600080fd5b5061023261063a565b604051808273ffffffffffffffffffffffffffffffffffffffff1673ffffffffffffffffffffffffffffffffffffffff16815260200191505060405180910390f35b34801561028057600080fd5b506102b5600480360381019080803573ffffffffffffffffffffffffffffffffffffffff16906020019092919050505061065f565b005b60018054600181600116156101000203166002900480601f01602080910402602001604051908101604052809291908181526020018280546001816001161561010002031660029004801561034d5780601f106103225761010080835404028352916020019161034d565b820191906000526020600020905b81548152906001019060200180831161033057829003601f168201915b505050505081565b606060018054600181600116156101000203166002900480601f0160208091040260200160405190810160405280929190818152602001828054600181600116156101000203166002900480156103ed5780601f106103c2576101008083540402835291602001916103ed565b820191906000526020600020905b8154815290600101906020018083116103d057829003601f168201915b5050505050905090565b7f58c68abb7f49445e486a2d60f1de6006a2c5822a6a6161956b47ba0cb5e060d96001826040518080602001806020018381038352858181546001816001161561010002031660029004815260200191508054600181600116156101000203166002900480156104a85780601f1061047d576101008083540402835291602001916104a8565b820191906000526020600020905b81548152906001019060200180831161048b57829003601f168201915b5050838103825284818151815260200191508051906020019080838360005b838110156104e25780820151818401526020810190506104c7565b50505050905090810190601f16801561050f5780820380516001836020036101000a031916815260200191505b5094505050505060405180910390a180600190805190602001906105349291906107c0565b5050565b6000809054906101000a900473ffffffffffffffffffffffffffffffffffffffff1673ffffffffffffffffffffffffffffffffffffffff163373ffffffffffffffffffffffffffffffffffffffff1614151561059357600080fd5b6000809054906101000a900473ffffffffffffffffffffffffffffffffffffffff1673ffffffffffffffffffffffffffffffffffffffff167ff8df31144d9c2f0f6b59d69b8b98abd5459d07f2742c4df920b25aae33c6482060405160405180910390a260008060006101000a81548173ffffffffffffffffffffffffffffffffffffffff021916908373ffffffffffffffffffffffffffffffffffffffff160217905550565b6000809054906101000a900473ffffffffffffffffffffffffffffffffffffffff1681565b6000809054906101000a900473ffffffffffffffffffffffffffffffffffffffff1673ffffffffffffffffffffffffffffffffffffffff163373ffffffffffffffffffffffffffffffffffffffff161415156106ba57600080fd5b6106c3816106c6565b50565b600073ffffffffffffffffffffffffffffffffffffffff168173ffffffffffffffffffffffffffffffffffffffff161415151561070257600080fd5b8073ffffffffffffffffffffffffffffffffffffffff166000809054906101000a900473ffffffffffffffffffffffffffffffffffffffff1673ffffffffffffffffffffffffffffffffffffffff167f8be0079c531659141344cd1fd0a4f28419497f9722a3daafe3b4186f6b6457e060405160405180910390a3806000806101000a81548173ffffffffffffffffffffffffffffffffffffffff021916908373ffffffffffffffffffffffffffffffffffffffff16021790555050565b828054600181600116156101000203166002900490600052602060002090601f016020900481019282601f1061080157805160ff191683800117855561082f565b8280016001018555821561082f579182015b8281111561082e578251825591602001919060010190610813565b5b50905061083c9190610840565b5090565b61086291905b8082111561085e576000816000905550600101610846565b5090565b905600a165627a7a723058206d8fc24a4ec87d7b4e16b34a27a9dc8fb2dddd3dbe16b96aa820ff1ce3df9fe20029",
  "source": "pragma solidity ^0.4.23;\n\nimport \"zeppelin-solidity/contracts/ownership/Ownable.sol\";\n\ncontract NameStorageExample is Ownable {\n    string public name = \"ExampleStorage\";\n\n    event NameChangedEvent(string previousName, string newName);\n\n    constructor() public {\n        name = \"ExampleStorage\";\n    }\n\n    function changeName(\n        string newName\n    ) {\n        emit NameChangedEvent(name, newName);\n        name = newName;\n    }\n\n    function getName() external view\n        returns(string) {\n        return name;\n    }\n}",
  "sourcePath": "/Users/marius/Development/gatsby-starter-dapp/truffle/contracts/NameStorageExample.sol",
  "compiler": {
    "name": "solc",
    "version": "0.4.24+commit.e67f0147.Emscripten.clang"
  },
  "schemaVersion": "2.0.1",
  "updatedAt": "2018-07-22T14:18:13.105Z"
}